:020000020000FC
:020000003FC0FF
:1000800008E00EBF0FEF0DBF07E007B94098419899
:1000900042980FEF04B95698B7D0C8D0F4E0E0E02A
:1000A000E3D010ECD8D0F4E0EAE0DED010E010931A
:1000B000800010E01093810005E8009385000EEEAB
:1000C0000093840080E090E014E0109381004E9B48
:1000D000FECF4E99FECF019616B310FFF8CF16BB98
:1000E00010E010938100AC014A95D0D018E8B3D04D
:1000F000DAD000E00093800002E400938100B59A1A
:1001000016B315FFFDCF16BB2091860030918700F6
:1001100016B315FFFDCF16BB4091860050918700A6
:10012000421B530B05ED12E04F935F93401B510BA5
:1001300040F000C05F914F9164E640D02A0161E039
:1001400004C05F914F912A0162E000E000938000BB
:1001500002E400938100B59A16B315FFFDCF16BBDC
:10016000209186003091870002E00093810016B351
:1001700015FFFDCF16BB409186005091870002E429
:1001800000938100421B530B613009F006C0952F8C
:10019000842F24D0482F592F0CC004E6409F900193
:1001A000509F300DA901952F842F18D0482F592F1B
:1001B00000C06CD018EC4FD076D078CF20E17727F4
:1001C0008894440F551F771F20F0761B18F4760F84
:1001D00002C0761B41602A9599F7089500E1202F0F
:1001E000222433248894880F991F221C331C30F05A
:1001F0002418350828F4240C351C03C024183508AD
:1002000081602A9579F7089508EC37D0409810E37B
:1002100027D00AE232D0409810E322D002E02DD05D
:10022000409810E31DD002E028D00895409818E3CC
:1002300017D001E022D0409811E012D004E11DD087
:1002400040981CE00DD001E018D0409816E008D08E
:1002500001E013D0089501E010D0409801D0089536
:1002600015B9429A429808951591103029F001E08D
:1002700004D0409AF5DFF8CF0895F02E08ECE02E78
:10028000EA940000E9F7FA94D1F70895B2E0A0E00B
:1002900025E010E01D932A95E9F76AE08FDF7E9351
:1002A0004030E1F7089525E0B2E0A0E01D9100E3C1
:1002B000100F01E0E2DF409AD3DF2A95B9F70895E5
:100400006628487A2920203A2000434B4E5628255A
:04041000293A200065
:00000001FF
